:040000000DEF00F010
:0400080079EF00F09C
:10001800FF00A9EF00F0BE6ABF6AC06A3F0EC66E55
:10002800F00EC76EF90EC86E370E0401006FF00EA1
:10003800086FFD0E106F016B096B116B0201876B66
:10004800866B0401026B0A6B126B370E036FF00E9E
:100058000B6F13693F0E046FF00E0C6F1469056B7C
:10006800066B076B0D6B0E6B0F6B156B166B176BB7
:100078001200040E0301206F1F6B216B300E1D6FE1
:100088001C6BDA0E066E010E076EE2EC00F0B696F7
:10009800AB86F00E03011E6FF00CD69AB490D68092
:1000A800000E066A076AECEC00F0B990D682000EE2
:1000B800066A076AEBEC00F0BD90D684066A076A08
:1000C800000C0A50C2EC00F00A2A070E0A6401D09C
:1000D8000A6A010EC0A2000EFF0A036E0346C05052
:1000E8000318FD0B0318C06E1200FAC404F5FBC414
:1000F80005F5A8BEB3AE02D0EEEC00F0ABB6B6A6DE
:1001080002D08CEC00F005C5FBF404C5FAF411002C
:10011800B69608500910D8B412000500FA6E0850B7
:10012800FD6E0950FE6EF850FF6EFA501200CEECCC
:1001380000F00001A387CA0E066E000E076EE2ECFF
:1001480000F0D68EE7EC00F0FFD70A6A0401080E2B
:100158005D6F000E5E6F000E5F6F000EF86E00019F
:100168009BEF00F00F0E0001A46F010EA56F400E6B
:10017800A66FA76BA96BA00EA36FA00C026E00015F
:10018800A48702C501F5013AA45101188F0B011883
:10019800A46F1200D8EC00F00FEC00F0B6EC00F001
:1001A8003DEC00F051EF00F0620E0001AD6FAF6B57
:1001B800B36B020EB16FB06BAC6B120006C508F5DD
:1001C80007C509F5120003011E8F12001200120064
:0601D800120012001200EB
:020000040020DA
:10000000FF0FFF0FFF0FFF0FFF0FFF0FFF0FFF0F80
:10001000FF0FFF0FFF0FFF0FFF0FFF0FFF0FFF0F70
:10002000FF0FFF0FFF0FFF0FFF0FFF0FFF0FFF0F60
:10003000FF0FFF0FFF0FFF0FFF0FFF0FFF0FFF0F50
:020000040030CA
:0A000000ECFFF7FF9FFFFFFFFFFF7B
:00000001FF
