:020000040000FA
:04000000FEEF7FF0A0
:10FF0600120012001200000EF86E0001C1EF7FF021
:10FF160091EC7FF0ADEC7FF0D8EF7FF0620E000140
:10FF2600AD6F700EAE6FAF6BB36B020EB16FB26B8F
:10FF3600B06BAC6B12000001A36BA46BA56BA66B38
:10FF4600480EA36F0F0EA46F010EA56F400EA66F8D
:10FF5600A38F400CD69AB490D680000E016A026A2E
:10FF660083EC7FF0B990D682000E016A026A84ECB7
:10FF76007FF0BD90D684016A026A000C8BEC7FF09C
:10FF86009EEC7FF0046A030EE82EFED700F004C54F
:10FF960003F5033A0001A45103188F0B0318A46F4D
:10FFA600042A070E0464EFD7EDD7BE6ABF6AC06A9B
:10FFB6003F0EC66EF00EC76EC8680401006B086B74
:10FFC600106B016B096B116B026B0A6B126B370EB0
:10FFD600036FF00E0B6F13693F0E046FF00E0C6F7C
:10FFE6001469056B066B076B0D6B0E6B0F6B156B50
:0AFFF600166B176B120086EF7FF008
:020000040020DA
:10000000FF0FFF0FFF0FFF0FFF0FFF0FFF0FFF0F80
:10001000FF0FFF0FFF0FFF0FFF0FFF0FFF0FFF0F70
:020000040030CA
:0A0000008CFEFFFF9FFFFFFFFFFFD4
:00000001FF
