:020000040000FA
:04000000FEEF7FF0A0
:10FF36000001CFEF7FF00001636B646B656B666B4E
:10FF4600676B686B12009EEC7FF0DEEC7FF0AEEC28
:10FF56007FF0B8EF7FF0620E0001AD6FAF6BB36B51
:10FF6600020EB16FB06BAC6B12000F0EA46F010ED8
:10FF7600A56F400EA66FA76BA96B880EA36F880CA2
:10FF8600026E0001A48702C501F5013AA4510118C9
:10FF96008F0B0118A46F1200A6EC7FF0036A080EFF
:10FFA600E82EFED700F00350C3EC7FF0032A070EBD
:10FFB6000364F5D7F3D7BE6ABF6AC06A3F0EC66E42
:10FFC600F00EC76EFB0EC86E0401106FF00E086FC0
:10FFD600370E006F096B016B116B026B0A6B126BAC
:10FFE600370E036FF00E0B6F13693F0E046FF00EA2
:0AFFF6000C6F146912009BEF7FF0FE
:020000040020DA
:10000000FF0FFF0FFF0FFF0FFF0FFF0FFF0FFF0F80
:10001000FF0FFF0FFF0FFF0FFF0FFF0FFF0FFF0F70
:020000040030CA
:0A000000ECFFF7FF9FFFFFFFFFFF7B
:00000001FF
