:020000040000FA
:040000000DEF00F010
:0400080090EF00F085
:10001800FF007EEF00F0BE6ABF6AC06A3F0EC66E80
:10002800F00EC76EFB0EC86E0401006B086B040E61
:10003800106F016B096B116B026B0A6B126B370E39
:10004800036FF00E0B6F13693F0E046FF00E0C6F09
:100058001469056B066B076B0D6B0E6B0F6B156BDD
:10006800166B176B12008AEC00F062EC00F0046A61
:10007800030EE82EFED700F004C503F5033A00018D
:10008800A45103188F0B0318A46F042A070E0464E5
:10009800EFD7EDD7D69AB490D680000E016A026ADF
:1000A80098EC00F0B990D682000E016A026A97ECCB
:1000B80000F0BD90D684016A026A000C0001A36BAF
:1000C800A46BA56BA66B480EA36F0F0EA46F010E51
:1000D800A56F400EA66FA38F400C620E0001AD6F96
:1000E800700EAE6FAF6BB36B020EB16FB26BB06BCD
:1000F800AC6B12000401080E5D6F000E5E6F000EFF
:100108005F6F000EF86E000137EF00F04EEC00F064
:1001180071EC00F00FEF00F0A8BEB3AE110099EC3F
:0C01280000F01100120012001200120082
:020000040020DA
:10000000FF0FFF0FFF0FFF0FFF0FFF0FFF0FFF0F80
:10001000FF0FFF0FFF0FFF0FFF0FFF0FFF0FFF0F70
:020000040030CA
:0A0000008CFFF7FF9FFFFFFFFFFFDB
:00000001FF
