:020000040000FA
:040000000DEF00F010
:04000800AAEF00F06B
:10001800FF00BBEF00F0000EBE6E000EBF6E000EBC
:10002800C06E3F0EC66EF00EC76EFB0EC86E000E99
:100038000401006F000E086F040E106F000E016FB0
:10004800000E096F000E116F000E026F000E0A6F8E
:10005800000E126F370E036FF00E0B6F13693F0E11
:10006800046FF00E0C6F1469000E056F000E066F1A
:10007800000E076F000E0D6F000E0E6F000E0F6F53
:10008800000E156F000E166F000E176F1200C7ECEA
:1000980000F085EC00F0000E0A6E030EE82EFED785
:1000A80000F00AC509F5093A0001A45109188F0B97
:1000B8000918A46F0A2A070E0A6465EF00F067EFB3
:1000C80000F051EF00F04FEF00F00DEF00F0D69A7E
:1000D800B490D680000E076E000E086ED8EC00F0C3
:1000E800B990D682000E076E000E086ED3EC00F0B1
:1000F800BD90D684000E076E000E086ECEEC00F0A0
:100108001200000E0001A36F000EA46F000EA56F71
:10011800000EA66F480EA36F0F0EA46F010EA56FF9
:10012800400EA66FA38F1200620E0001AD6F700E15
:10013800AE6F000EAF6F000EB36F020EB16F000E00
:10014800B26F000EB06F000EAC6F1200A8AEAFEF2A
:1001580000F0B1EF00F0BAEF00F0B3AEB6EF00F088
:10016800B8EF00F0BAEF00F0DDEC00F01100040188
:10017800080E5D6F000E5E6F000E5F6F000EF86E6A
:1001880000014BEF00F06BEC00F098EC00F00FEC86
:1001980000F0120007C501F508C502F5120007C5F1
:1001A80003F508C504F5120007C505F508C506F5E9
:0401B800120012001F
:020000040020DA
:10000000FF0FFF0FFF0FFF0FFF0FFF0FFF0FFF0F80
:10001000FF0FFF0FFF0FFF0FFF0FFF0FFF0FFF0F70
:020000040030CA
:0A0000008CFFF7FF9FFFFFFFFFFFDB
:00000001FF
