:020000040000FA
:04000000FEEF7FF0A0
:10FEF4000001BCEF7FF0AEEC7FF0D4EC7FF0A0EC1F
:10FF04007FF092EC7FF01200026E0001A48702C51C
:10FF140001F5013AA45101188F0B0118A46F1200C6
:10FF24000F0E0001A46F010EA56F400EA66F000E08
:10FF3400A76F000EA96F880EA36F1200620E000156
:10FF4400AD6F000EAF6F000EB36F020EB16F000EF7
:10FF5400B06F000EAC6F1200000E0001636F000E54
:10FF6400646F000E656F000E666F000E676F000E03
:10FF7400686F12007DEC7FF0000E036E080EE82E11
:10FF8400FED700F0035086EC7FF0032A070E0364CB
:10FF9400CEEF7FF0D0EF7FF0C0EF7FF0BEEF7FF0C9
:10FFA400FEEF7FF0000EBE6E000EBF6E000EC06E40
:10FFB4003F0EC66EF00EC76EFB0EC86EFB0E04013C
:10FFC400106FF00E086F370E006F000E096F000EF1
:10FFD400016F000E116F000E026F000E0A6F000E0B
:10FFE400126F370E036FF00E0B6F13693F0E046F21
:0CFFF400F00E0C6F146912007AEF7FF021
:020000040020DA
:10000000FF0FFF0FFF0FFF0FFF0FFF0FFF0FFF0F80
:10001000FF0FFF0FFF0FFF0FFF0FFF0FFF0FFF0F70
:020000040030CA
:0A000000ECFFF7FF9FFFFFFFFFFF7B
:00000001FF
