:020000040000FA
:04000000FEEF7FF0A0
:10FE920007C505F508C506F5120007C503F508C52F
:10FEA20004F5120007C501F508C502F51200000E9F
:10FEB200F86E0001A3EF7FF064EC7FF089EC7FF035
:10FEC200C3EC7FF01200620E0001AD6F700EAE6FD8
:10FED200000EAF6F000EB36F020EB16F000EB26F65
:10FEE200000EB06F000EAC6F1200000E0001A36F87
:10FEF200000EA46F000EA56F000EA66F480EA36F32
:10FF02000F0EA46F010EA56F400EA66FA38F1200F5
:10FF1200D69AB490D680000E076E000E086E49EC99
:10FF22007FF0B990D682000E076E000E086E4EEC7E
:10FF32007FF0BD90D684000E076E000E086E53EC63
:10FF42007FF012005DEC7FF076EC7FF0000E0A6E1F
:10FF5200030EE82EFED700F00AC509F5093A0001A2
:10FF6200A45109188F0B0918A46F0A2A070E0A64F4
:10FF7200BDEF7FF0BFEF7FF0A9EF7FF0A7EF7FF03B
:10FF8200FEEF7FF0000EBE6E000EBF6E000EC06E62
:10FF92003F0EC66EF00EC76EC868000E0401006FF9
:10FFA200000E086F000E106F000E016F000E096F39
:10FFB200000E116F000E026F000E0A6F000E126F1C
:10FFC200370E036FF00E0B6F13693F0E046FF00EC6
:10FFD2000C6F1469000E056F000E066F000E076F9E
:10FFE200000E0D6F000E0E6F000E0F6F000E156FDC
:0EFFF200000E166F000E176F120058EF7FF012
:020000040020DA
:10000000FF0FFF0FFF0FFF0FFF0FFF0FFF0FFF0F80
:10001000FF0FFF0FFF0FFF0FFF0FFF0FFF0FFF0F70
:020000040030CA
:0A0000008CFEFFFF9FFFFFFFFFFFD4
:00000001FF
