:040000000DEF00F010
:0400080049EF0BF0C1
:06001800FF0013EF0CF0E5
:101600000058177A18000000005218000000000E61
:10161000BE6E000EBF6E000EC06E3F0EC66EF00EA8
:10162000C76EF90EC86E370E0401006FF00E086F1A
:10163000FD0E106F000E016F000E096F000E116F8E
:10164000000E0201876F000E866F000E0401026F0C
:10165000000E0A6F000E126F370E036FF00E0B6F45
:1016600013693F0E046FF00E0C6F1469000E056FC6
:10167000000E066F000E076F000E0D6F000E0E6F4E
:10168000000E0F6F000E156F000E166F000E176F15
:101690001200FAC40CF5FBC40DF5A8AE52EF0BF026
:1016A00054EF0BF05DEF0BF0B3AE59EF0BF05BEFC7
:1016B0000BF05DEF0BF044EC0CF0ABA662EF0BF01F
:1016C00064EF0BF06DEF0BF0B6A669EF0BF06BEF6C
:1016D0000BF06DEF0BF0C3EC0BF00DC5FBF40CC57C
:1016E000FAF41100105007EC0CF0102A070E1064E9
:1016F0007CEF0BF07EEF0BF080EF0BF0000E106E26
:10170000C0B285EF0BF088EF0BF0010E89EF0BF004
:10171000000EFF0A0B6E0B46C0500B18FD0B0B188A
:10172000C06E1200D69AB490D680000E0E6E000ED7
:101730000F6E38EC0CF0B990D682000E0E6E000ED3
:101740000F6E33EC0CF0BD90D684000E0E6E000EC2
:101750000F6E2EEC0CF01200040E0301206F000E31
:101760001F6F000E216F300E1D6F000E1C6F860E56
:101770000E6E180E0F6E29EC0CF0B696AB86700E3E
:1017800003011E6F1200B69601500210D8B4CBEFC1
:101790000BF0CDEF0BF0D9EF0BF002D8D9EF0BF037
:1017A0000500FA6E0150FD6E0250FE6EFF6AFA509F
:1017B000120012001EEC0CF040EC0CF0E40E0E6E69
:1017C000160E0F6E29EC0CF0D68E3DEC0CF0E7EF08
:1017D0000BF00DEF00F00F0E0001A46F010EA56FCE
:1017E000400EA66F000EA76F000EA96FA00EA36F8C
:1017F0001200620E0001AD6F000EAF6F000EB36FEE
:10180000020EB16F000EB06F000EAC6F12000A6EC8
:101810000001A4870AC509F5093AA45109188F0BDC
:101820000918A46F1200106A0401080E5D6F000E03
:101830005E6F000E5F6F0001DAEF0BF0F9EC0BF05A
:1018400007EC0BF0EBEC0BF0ACEC0BF092EC0BF0CC
:1018500012000EC501F50FC502F512000EC503F505
:101860000FC504F512000EC505F50FC506F51200EB
:101870000EC507F50FC508F5120003011E8F1200F3
:0A1880000001A387120012001200FD
:020000040020DA
:10000000FF0FFF0FFF0FFF0FFF0FFF0FFF0FFF0F80
:10001000FF0FFF0FFF0FFF0FFF0FFF0FFF0FFF0F70
:10002000FF0FFF0FFF0FFF0FFF0FFF0FFF0FFF0F60
:10003000FF0FFF0FFF0FFF0FFF0FFF0FFF0FFF0F50
:020000040030CA
:09000000ECFFF7FF9FFFFFFFFF7B
:00000001FF
